:100000000C944A000C9454000C9454000C9454002A
:100010000C9454000C9454000C9454000C94540010
:100020000C9454000C9454000C9454000C94540000
:100030000C9454000C9454000C9454000C945400F0
:100040000C9454000C9454000C9454000C945400E0
:100050000C9454000C9454000C9454000C945400D0
:100060000C9454000C9454000C9454000C945400C0
:100070000C9454000C9454000C9454000C945400B0
:100080000C9454000C9454000C9454000C945400A0
:100090000C94540011241FBECFEFD0E1DEBFCDBFC2
:1000A0000E9456000C946E000C94000078948FEF20
:1000B00084B985B92FEF33ED90E321503040904063
:1000C000E1F700C0000015B82FEF33ED90E32150A9
:1000D00030409040E1F700C00000EBCFF894FFCF34
:00000001FF
