:100000000C944A000C9469000C9469000C946900EB
:100010000C9469000C9469000C9469000C946900BC
:100020000C9469000C9469000C9469000C946900AC
:100030000C9469000C9469000C9469000C9469009C
:100040000C9469000C9469000C9469000C9469008C
:100050000C9469000C9469000C9469000C9469007C
:100060000C9469000C9469000C9469000C9469006C
:100070000C9469000C9469000C9469000C9469005C
:100080000C9469000C9469000C9469000C9469004C
:100090000C94690011241FBECFEFD0E1DEBFCDBFAD
:1000A00011E0A0E0B1E0EAE9F5E000E00BBF02C03A
:1000B00007900D92A230B107D9F721E0A2E0B1E09C
:1000C00001C01D92A231B207E1F70E9470020C94A8
:1000D000CB020C9400009B01AC0183E0220F331F84
:1000E000441F551F8A95D1F760E074E284EF90E0D9
:1000F0000E949A02BA01A90141505109610971098E
:10010000BB27A72F962F852F8093C5004093C4004F
:10011000E0ECF0E0808182608083E1ECF0E08081BF
:1001200080618083699A68988081886080838081FB
:100130008B7F8083E2ECF0E080818F778083808109
:100140008F7B808380818F7D808380818F7E808381
:100150008081877F80838081877F808380818460A6
:10016000808380818260808308959091C00095FF94
:10017000FCCF8093C60008958091C00087FFFCCF1C
:100180008091C600089581B181B981B181B9E6E05D
:10019000F1E087E0818386E08383108212820895F4
:1001A000CF93DF938EEF0E942801C6E0D1E08881D3
:1001B0000E9428018A810E9428018CEFDF91CF9153
:1001C0000C94280140B181E090E09C01009007016F
:1001D00002C0220F331F0A94E2F724232093020166
:1001E00030B10090090102C0880F991F0A94E2F70C
:1001F0008323222321F09FEF9093020102C01092EB
:100200000201882309F18FEF80930401809102019C
:1002100090910601891719F091E090930001809365
:1002200006018091040190910801891719F091E06D
:10023000909300018093080180910001882339F098
:10024000109200010C94D00010920401DFCF0895A9
:100250000C94B5000C94BC00CF930E94BC00823477
:1002600089F0833561F08134B9F40E94BC00C82F55
:100270000E94BC00682F8C2FCF910C943902CF9133
:100280000C94D0000E94BC00C82F0E94BC00682FB4
:100290008C2FCF910C943202CF910895239A80E451
:1002A0008CBD8CB582608CBD8DB581608DBD08958F
:1002B0000DB407FEFDCF8EB508958EBD0DB407FEBB
:1002C000FDCF0895653688F49AE0699FB001112446
:1002D00068517C4F813019F48CE990E004C0823081
:1002E00021F48AE990E00C94690208958130A9F420
:1002F000262F30E0A0EDB7E00E94BC0224EB30E0F6
:1003000040E050E00E949A02CA01B9016C507E4F51
:100310008F4F9F4F88E890E02DC08230A9F4262FA0
:1003200030E0A0EDB7E00E94BC0224EB30E040E0FA
:1003300050E00E949A02CA01B9016C507E4F8F4F63
:100340009F4F8AE890E016C08330B1F4262F30E04A
:10035000A0EDB7E00E94BC0224EB30E040E050E0AA
:100360000E949A02CA01B9016C507E4F8F4F9F4F75
:100370008CE890E00C946902089580E29EE4A0E08D
:10038000B0E080930A0190930B01A0930C01B0930D
:100390000D01E0E8F0E0808182608083E1E8F0E038
:1003A00080818061808380818260808360910A0186
:1003B00070910B0186E890E00C94690280E29EE463
:1003C000A0E0B0E080930E0190930F01A093100184
:1003D000B0931101E0E9F0E0808182608083E1E97F
:1003E000F0E0808180618083808182608083609181
:1003F0000E0170910F0186E990E00C946902249A35
:100400008CE68093B0001092B300259A1092890078
:1004100010928800E0E8F0E0808180688083269A6E
:1004200010928B0010928A00808180628083279ACC
:1004300010928D0010928C008081886080836D9A6C
:10044000E0E9F0E080818860808310929D00109246
:100450009C006C9A80818062808310929B00109235
:100460009A000895833020F4653610F40C946201EC
:100470000895863020F4653B10F40C9476010895BD
:100480008150843030F4862F8095881F8827881FFC
:10049000089581E0089564E681E00E94620124E508
:1004A00035E885E491E02150304080409040D9F714
:1004B00000C000C0000060E081E00E9462012FEFF8
:1004C00037EA81E6215030408040E1F700C000006B
:1004D0000895FC019FB7F894718360839FBF0895CE
:1004E00060E071EE80E090E00E946B000E94BD0130
:1004F0000E94DE010E94FF010E94C30060E081E0D3
:100500000E94320260E082E00E943202789464EB42
:1005100081E00E94760164EB82E00E94760164EB48
:1005200083E00E9476010E94E2000E942C010E945A
:10053000D000F9CFA1E21A2EAA1BBB1BFD010DC0F2
:10054000AA1FBB1FEE1FFF1FA217B307E407F50783
:1005500020F0A21BB30BE40BF50B661F771F881F5F
:10056000991F1A9469F760957095809590959B01F5
:10057000AC01BD01CF010895A29FB001B39FC0019E
:10058000A39F700D811D1124911DB29F700D811DBF
:0A0590001124911D0895F894FFCF87
:02059A0001005E
:00000001FF
